:100000000208F9E4F5A01200CF1200C31200817BB0
:10001000FF7A0079DF12002F1200B71200D7A9076C
:10002000E9646360051200A780F11200B780EC8BD1
:10003000088A09890AE4F50BF50CAB08AA09A90A94
:10004000850C82850B83120800FF600D1200A70546
:100050000CE50C70E5050B80E1221200977F0A7E0B
:1000600000E4FDFCC3ED9FEC9E5015E4FBFA0BBBD6
:1000700000010ABA04F8BBFBF50DBD00010C80E4D9
:10008000227F3812005A7F0E12005A7F0112009709
:100090007F0A7E000200618F90C2A1D2A27F017E02
:1000A00000120061C2A2228F90D2A1D2A27F017E53
:1000B00000120061C2A2227F011200977F0A7E0017
:1000C000020061758920758DFD759850D28E22E4ED
:1000D000F590C2A1C2A2223098FDC298AF992268C1
:0600E000656C6C6F00006E
:10080000BB010CE58229F582E5833AF583E02250AD
:1008100006E92582F8E622BBFE06E92582F8E222F7
:0D082000E58229F582E5833AF583E4932211
:0C08F900787FE4F6D8FD75810C02000346
:00000001FF
